{
  "transactions": [
    {
      "hash": "0x88da7a39644ae400dd32bc7a4acae9591e22f37219f0e95697fff188630f77c8",
      "transactionType": "CALL",
      "contractName": null,
      "contractAddress": "0x9fe46736679d2d9a65f0992f2272de9f3c7fa6e0",
      "function": "burn(uint256)",
      "arguments": [
        "10000000000000000000"
      ],
      "transaction": {
        "from": "0xf39fd6e51aad88f6f4ce6ab8827279cfffb92266",
        "to": "0x9fe46736679d2d9a65f0992f2272de9f3c7fa6e0",
        "gas": "0xc1ec",
        "value": "0x0",
        "input": "0x42966c680000000000000000000000000000000000000000000000008ac7230489e80000",
        "nonce": "0x4",
        "chainId": "0x7a69"
      },
      "additionalContracts": [],
      "isFixedGasLimit": false
    }
  ],
  "receipts": [
    {
      "status": "0x1",
      "cumulativeGasUsed": "0x8c66",
      "logs": [
        {
          "address": "0x9fe46736679d2d9a65f0992f2272de9f3c7fa6e0",
          "topics": [
            "0xddf252ad1be2c89b69c2b068fc378daa952ba7f163c4a11628f55a4df523b3ef",
            "0x000000000000000000000000f39fd6e51aad88f6f4ce6ab8827279cfffb92266",
            "0x0000000000000000000000000000000000000000000000000000000000000000"
          ],
          "data": "0x0000000000000000000000000000000000000000000000008ac7230489e80000",
          "blockHash": "0x84d2e5fe8cdeb0b33a1143b499826f5cf98f5113ef19306a8cc148305a3e78c2",
          "blockNumber": "0x5",
          "blockTimestamp": "0x67940d64",
          "transactionHash": "0x88da7a39644ae400dd32bc7a4acae9591e22f37219f0e95697fff188630f77c8",
          "transactionIndex": "0x0",
          "logIndex": "0x0",
          "removed": false
        }
      ],
      "logsBloom": "0x00000000000000000000000000000000000000000000000000000000000000000000000000000000000000000000000000000000000040200000000000000000000000000000000000000008000000000000000000000000000000000000000000000000020000000000000100000800000000000000000000000010000000000000000000000000000000000000000000000000000000000000000000000000000000000000000000000000000000000000000000000000000000000000000000000002000000200000000000000000000000002000000000000000000020000000000000000000000000000000000000000000000000400000000000000000",
      "type": "0x2",
      "transactionHash": "0x88da7a39644ae400dd32bc7a4acae9591e22f37219f0e95697fff188630f77c8",
      "transactionIndex": "0x0",
      "blockHash": "0x84d2e5fe8cdeb0b33a1143b499826f5cf98f5113ef19306a8cc148305a3e78c2",
      "blockNumber": "0x5",
      "gasUsed": "0x8c66",
      "effectiveGasPrice": "0x239bdb33",
      "blobGasPrice": "0x1",
      "from": "0xf39fd6e51aad88f6f4ce6ab8827279cfffb92266",
      "to": "0x9fe46736679d2d9a65f0992f2272de9f3c7fa6e0",
      "contractAddress": null
    }
  ],
  "libraries": [],
  "pending": [],
  "returns": {},
  "timestamp": 1737756004,
  "chain": 31337,
  "commit": null
}