{
  "transactions": [
    {
      "hash": "0x2e13dd95040080ee4548c5a9b0dec1af44db811c9d05f9dbea17dda0fdcc513b",
      "transactionType": "CALL",
      "contractName": null,
      "contractAddress": "0x9fe46736679d2d9a65f0992f2272de9f3c7fa6e0",
      "function": "mint(address,uint256)",
      "arguments": [
        "0x2981c6771a57aF3A9522e38223784b6D125C89C0",
        "10000000000000000000"
      ],
      "transaction": {
        "from": "0xf39fd6e51aad88f6f4ce6ab8827279cfffb92266",
        "to": "0x9fe46736679d2d9a65f0992f2272de9f3c7fa6e0",
        "gas": "0x12069",
        "value": "0x0",
        "input": "0x40c10f190000000000000000000000002981c6771a57af3a9522e38223784b6d125c89c00000000000000000000000000000000000000000000000008ac7230489e80000",
        "nonce": "0x3",
        "chainId": "0x7a69"
      },
      "additionalContracts": [],
      "isFixedGasLimit": false
    }
  ],
  "receipts": [
    {
      "status": "0x1",
      "cumulativeGasUsed": "0xd0cf",
      "logs": [
        {
          "address": "0x9fe46736679d2d9a65f0992f2272de9f3c7fa6e0",
          "topics": [
            "0xddf252ad1be2c89b69c2b068fc378daa952ba7f163c4a11628f55a4df523b3ef",
            "0x0000000000000000000000000000000000000000000000000000000000000000",
            "0x0000000000000000000000002981c6771a57af3a9522e38223784b6d125c89c0"
          ],
          "data": "0x0000000000000000000000000000000000000000000000008ac7230489e80000",
          "blockHash": "0x06bd6c99fad87199af3fc7cb86a9789a30fb231cf4fb9fc343755176f532c651",
          "blockNumber": "0x4",
          "blockTimestamp": "0x67940bcd",
          "transactionHash": "0x2e13dd95040080ee4548c5a9b0dec1af44db811c9d05f9dbea17dda0fdcc513b",
          "transactionIndex": "0x0",
          "logIndex": "0x0",
          "removed": false
        }
      ],
      "logsBloom": "0x00000000000000000000000000000000000000000000000000000000400000000000000000000000000000000000000000000000000040200008000000000000000000000000000000000008000000000000000000000000000000000000000000000000020000000000000000000800000000000000000000000010000000000000000000000000000000000000000000000000000000000000000000000000000000000000000000000000000000000000000000000000000000000000000000000002000000000000000000000000000000000000000000000000000020000000000000000000000000000000000000000000000000400000008000000000",
      "type": "0x2",
      "transactionHash": "0x2e13dd95040080ee4548c5a9b0dec1af44db811c9d05f9dbea17dda0fdcc513b",
      "transactionIndex": "0x0",
      "blockHash": "0x06bd6c99fad87199af3fc7cb86a9789a30fb231cf4fb9fc343755176f532c651",
      "blockNumber": "0x4",
      "gasUsed": "0xd0cf",
      "effectiveGasPrice": "0x28acd1ff",
      "blobGasPrice": "0x1",
      "from": "0xf39fd6e51aad88f6f4ce6ab8827279cfffb92266",
      "to": "0x9fe46736679d2d9a65f0992f2272de9f3c7fa6e0",
      "contractAddress": null
    }
  ],
  "libraries": [],
  "pending": [],
  "returns": {},
  "timestamp": 1737755597,
  "chain": 31337,
  "commit": null
}